:020000040800F2
:10000000981B002065020008810500081F050008F4
:100010007D050008AD030008910C000800000000F9
:10002000000000000000000000000000CD010008FA
:10003000B103000800000000110200086513000869
:100040007F0200087F0200087F0200087F0200088C
:100050007F0200087F0200087F0200087F0200087C
:100060007F0200087F0200087F0200087F0200086C
:100070007F0200087F0200087F0200087F0200085C
:100080007F0200087F0200087F0200087F0200084C
:100090007F0200087F0200087F0200087F0200083C
:1000A0007F0200087F0200087F0200087F0200082C
:1000B0007F0200087F0200087F0200087F0200081C
:1000C0007F0200087F0200087F0200087F0200080C
:1000D0007F0200087F0200087F0200087F020008FC
:1000E0007F0200087F0200087F0200087F020008EC
:1000F0007F0200087F0200087F0200087F020008DC
:100100007F0200087F0200087F0200087F020008CB
:100110007F0200087F0200087F0200087F020008BB
:100120007F0200087F0200087F0200087F020008AB
:1001300000F002F800F03AF80AA090E8000C8244BF
:100140008344AAF10107DA4501D100F02FF8AFF29C
:10015000090EBAE80F0013F0010F18BFFB1A43F0A5
:100160000103184798140000B8140000103A24BF87
:1001700078C878C1FAD8520724BF30C830C144BF0C
:1001800004680C607047000000230024002500264E
:10019000103A28BF78C1FBD8520728BF30C148BFEA
:1001A0000B6070471FB51FBD10B510BD00F0BAF849
:1001B0001146FFF7F7FF00F081FD00F0ECF803B403
:1001C000FFF7F2FF03BC00F065FD0000224B196849
:1001D0000868B0E8F00F80F30988BFF36F8F4FF025
:1001E000000080F311884EF00D0E704700000000F3
:1001F00006480068006880F3088862B661B6BFF3FD
:100200004F8FBFF36F8F00DF00BF00BF08ED00E02E
:10021000EFF30980BFF36F8F0F4B1A6820E9F00FDF
:10022000106008B54FF0BF0080F31188BFF34F8F07
:10023000BFF36F8F01F04CF84FF0000080F311888E
:10024000BDE8084019680868B0E8F00F80F3098835
:10025000BFF36F8F704700BF30000020EFF30580C1
:10026000704700000948804709480047FEE7FEE75D
:10027000FEE7FEE7FEE7FEE7FEE7FEE7FEE7FEE756
:1002800004480549054A064B70470000C10A0008AA
:100290003101000898150020981B002098170020B5
:1002A00098170020704700000FB4044910B503AA46
:1002B000029800F009F810BC5DF814FB6C000020F7
:1002C0007047704770477047074B70B50D467B44C9
:1002D00000F011F80446284600F020F810B14FF065
:1002E000FF3070BD204670BDC709000001694A1C7F
:1002F00002610878704700B58FB0CDE90131002167
:10030000059105497944CDE903101146684600F08E
:100310002EF80FB000BD0000E5FFFFFF007B00F0EE
:1003200080007047754600F03DF8AE46050069460E
:10033000534620F00700854618B020B5FFF7A0FF10
:10034000BDE820404FF000064FF000074FF00008D6
:100350004FF0000B21F00701AC46ACE8C009ACE857
:10036000C009ACE8C009ACE8C0098D4670472DE96A
:10037000F04106460024D6E90170F5688046304613
:1003800003E04146B847641C3046A8470028F8D12E
:100390002046BDE8F0810446AFF300802046FFF719
:1003A0000EFF0000004870473815002000BFFEE730
:1003B000704700001CB50020012103463222CDE920
:1003C000001008A10B4800F0E7FF002001210346C0
:1003D0003222CDE9001008A1094800F0DDFF00F04D
:1003E0003DFF1CBD4C45445F466C6F774C696768A8
:1003F00074000000250500085072696E74660000E4
:10040000090600082DE9F0410246002500260020DB
:1004100000230024002791F803C00CF00F0591F889
:1004200003C00CF0100CBCF1000F03D091F802C017
:100430004CEA050591F800C0BCF1000F31D01468FA
:1004400000202BE04FF0010C0CFA00F3B1F800C0D3
:100450000CEA03069E4220D183004FF00F0C0CFAE9
:1004600003F7BC4305FA03FC4CEA040491F803C00B
:10047000BCF1280F06D14FF0010C0CFA00FCC2F8B9
:1004800014C00AE091F803C0BCF1480F05D14FF049
:10049000010C0CFA00FCC2F810C0401C0828D1D393
:1004A0001460B1F800C0BCF1FF0F34DD54680020C7
:1004B0002EE000F1080C4FF0010808FA0CF3B1F837
:1004C00000C00CEA03069E4221D183004FF00F0CBE
:1004D0000CFA03F7BC4305FA03FC4CEA040491F858
:1004E00003C0BCF1280F05D100F1080C08FA0CF884
:1004F000C2F8148091F803C0BCF1480F07D100F195
:10050000080C4FF0010808FA0CF8C2F81080401CE3
:100510000828CED35460BDE8F081C160704700BFA9
:10052000FEE7000000BF00240BE00120A040C04314
:1005300081B20548FFF7F1FFC82000F075FE601C8E
:10054000C4B2082CEFDAF0E70010014008B500F063
:10055000B7FA0121102000F0BDF84FF6FF70ADF89A
:10056000000010208DF8030003208DF8020069467A
:100570000148FFF747FF08BD0010014000BFFEE73C
:100580007047000070B5002100230F22C47804B327
:10059000154C246804F4E064C4F5E064210AC1F158
:1005A0000403CA40447804FA03F1847814402143D8
:1005B00009010E4C0678A155047804F01F050124AA
:1005C000AC4005786D11AD0005F1E025C5F800419E
:1005D00009E0047804F01F050124AC40044D0678BE
:1005E000761145F8264070BD0CED00E000E400E017
:1005F00080E100E002490143024A116070470000B7
:100600000000FA050CED00E000BF02A0FFF74CFE71
:10061000FBE7000072756E6E696E670A00000000ED
:1006200000B587B0012144F2050000F053F84FF403
:100630000070ADF8180003208DF81A0018208DF80E
:100640001B0006A92148FFF7DDFE4FF48060ADF8DE
:10065000180004208DF81B0006A91C48FFF7D2FEE5
:100660004FF4C060FFF7C6FF25208DF8140000206E
:100670008DF8150001208DF816008DF8170005A8DB
:10068000FFF780FF4FF4165001900020ADF80800EE
:10069000ADF80A00ADF80C00ADF810000C20ADF874
:1006A0000E0001A90A4800F083FA0121084800F071
:1006B00040FA012240F22551054800F053FA40214A
:1006C000034800F02DFA07B000BD0000000801400B
:1006D0000038014029B1064A92690243044B9A61ED
:1006E00004E0034A92698243014B9A61704700001B
:1006F000001002400F48006840F001000D490860FA
:10070000084640680C4908400A49486008460068A5
:100710000A490840074908600846006820F480201C
:1007200008600846406820F4FE0048604FF41F004F
:1007300088607047001002400000FFF8FFFFF6FEDF
:1007400030B500210022002400232D4D6D6805F0F6
:100750000C0121B1042905D0082923D105E0294D38
:10076000056022E0274D05601FE0254D6D6805F40A
:100770007012234D6D6805F48034022505EB92421A
:100780001CB9214D554305600BE01D4D6D6805F406
:1007900000351DB11C4D5543056002E0194D554310
:1007A000056002E0174D056000BF00BF144D6D6885
:1007B00005F0F0010909154D6B5C0568DD404560E9
:1007C0000F4D6D6805F4E061090A104D6B5C4568DA
:1007D000DD4085600A4D6D6805F46051C90A0B4D16
:1007E0006B5C4568DD40C560054D6D6805F44041B2
:1007F000890B074D6B5CC568B5FBF3F5056130BD32
:100800000010024000127A0000093D0000000020A4
:100810001000002010B501460022002300204A11DC
:10082000012A02D1094C236806E0022A02D1074CB2
:10083000236A01E0054C636A01F01F020124944021
:100840001C400CB1012000E0002010BD001002404F
:100850000248406800F00C007047000000100240A1
:1008600001460020034A506820F0F0000843506021
:1008700070470000001002401149096821F48031DE
:100880000F4A11601146096821F480211160B0F50A
:10089000803F03D0B0F5802F0ED106E008490968EB
:1008A00041F48031064A116007E00549096841F4C6
:1008B000A021034A116000E000BF00BF70470000A4
:1008C0000010024010B5FFF715FF4FF48030FFF71E
:1008D000D3FF00F05DF8012820D10020FFF7C0FF12
:1008E0004FF4806000F01CF8002000F025F84FF471
:1008F000E0114FF4403000F031F8012000F028F80A
:1009000000BF3920FFF786FF0028FAD0022000F050
:1009100033F800BFFFF79CFF0828FBD110BD000093
:1009200001460020034A506820F4E060084350600C
:10093000704700000010024001460020034A506842
:1009400020F4605040EAC10050607047001002403F
:10095000014908667047000000004242024600203C
:10096000044B586820F47C1042EA01031843014B01
:10097000586070470010024001460020034A50684A
:1009800020F0030008435060704700000010024050
:1009900038B5002000900024002500BF3120FFF76B
:1009A00039FF05460098401C00900098B0F5A06FF4
:1009B00001D0002DF2D03120FFF72CFF08B1012427
:1009C00000E00024204638BD10B5FFF77BFFFFF79D
:1009D000BDFDFFF725FE10BD10B500F001F810BDFC
:1009E0000CB50020019000903348006840F480303E
:1009F0003149086000BF3048006800F400300090C2
:100A00000198401C0190009818B90198B0F5A06FAA
:100A1000F1D12948006800F4003010B101200090A5
:100A200001E0002000900098012843D1234800688D
:100A300040F01000214908600846006820F00300DB
:100A400008600846006840F0020008601A484068E4
:100A5000194948600846406848600846406840F4C4
:100A6000806048600846406820F47C104860084672
:100A7000406840F4E81048600846006840F0807024
:100A8000086000BF0C48006800F000700028F9D032
:100A90000948406820F0030007494860084640685C
:100AA00040F00200486000BF0348406800F00C00BE
:100AB0000828F9D10CBD00000010024000200240BF
:100AC00010B51348006840F001001149086008465D
:100AD0004068104908400E494860084600680E49C1
:100AE00008400B4908600846006820F48020086030
:100AF0000846406820F4FE0048604FF41F008860FC
:100B0000FFF76AFF4FF000600449086010BD000065
:100B1000001002400000FFF8FFFFF6FE08ED00E0C5
:100B200001F40072B2F5007F00D100BFCA43028019
:100B3000704721B1828942F40052828104E08289A7
:100B40004DF6FF731A408281704702460020B1F5CE
:100B5000007F00D100BF13880B400BB1012000E0E3
:100B600000207047F0B50346002400260025002031
:100B700040F66A17B94200D100BF1846C1F34214CB
:100B800001F01F06012707FA06F5012C01D10C30F0
:100B900004E0022C01D1103000E014301AB10768D3
:100BA0002F43076002E00768AF430760F0BD000015
:100BB0002DE9F04786B005460E460024A24600BF48
:100BC000A1460027B08900B100BF2F462C8A4CF601
:100BD000FF700440F08804432C82AC894EF6F31079
:100BE0000440B08831890843718908430443AC81CB
:100BF000AC8A4FF6FF400440B0890443AC8201A8A0
:100C0000FFF79EFD1F48874202D1DDF810A001E0EA
:100C1000DDF80CA0A88900F4004040B10AEBCA003E
:100C200000EB0A1031684900B0FBF1F807E00AEB6D
:100C3000CA0000EB0A1031688900B0FBF1F86420AB
:100C4000B8FBF0F004012009642101FB1089A88998
:100C500000F4004040B1322000EBC900B0FBF1F0DD
:100C600000F00700044308E0322000EB0910642183
:100C7000B0FBF1F000F00F0004432C8106B0BDE89A
:100C8000F087000000380140C1F3080282807047FD
:100C900000BFFEE700BF704770B504460D46E1B2E5
:100CA0000548FFF7F1FF00BF80210348FFF74DFF24
:100CB0000028F9D0204670BD00380140FFF784FEBF
:100CC000FFF778FB00BFFEE72DE9F04105460E4631
:100CD0001C4807681C480068001D00F00FFA50B956
:100CE0001948006890F82C100120884017490968BD
:100CF000814316480160681C38B936B11248016852
:100D0000091D134800F038FA1AE07C190E480068F3
:100D10004460BC4207D20C480168091D0D480068B8
:100D200000F010FA0CE008480168091D0A48006844
:100D300000F008FA09480068844201D207480460BC
:100D4000BDE8F08144000020300000204800002071
:100D5000241500203800002034000020600000200E
:100D600010B5044600F014FA23480068401C2249DC
:100D700008602248006840B92048046008460068BE
:100D800001280DD100F0F2F80AE01D48006838B9DA
:100D90001A480068C06AE16A884201D817480460AE
:100DA00018480068401C1749086094F82C1001206E
:100DB000884015490968084313490860E16A01EB56
:100DC0008101124A02EB8100211D00F0D5F900F0EB
:100DD000F1F90B48006868B108480068C06AE16A28
:100DE000884207D24FF0805009490860BFF34F8F07
:100DF000BFF36F8F10BD00004000002030000020C6
:100E00004C0000205C0000204800002070140020EE
:100E100004ED00E070B523E000F052FA13480068DA
:100E200008B9012000E00020054600F073FBBDB9C1
:100E300000F0AEF90D48C068C468201D00F05EF9EE
:100E40000B480068401E0A4908600A480068401EB6
:100E50000849086000F0AEF9204600F00DF800BF28
:100E6000044800680028D7D170BD0000101500208C
:100E7000400000203C00002010B50446206B00F02C
:100E8000A9F9204600F0A6F910BD00000A4A22F098
:100E900007000A4A10600022084B5A6041F2F832FB
:100EA000074B5A6000221A60014641F2F8324A604C
:100EB0001A460A60704700007800002014000020E5
:100EC0001C00002000BFFFF7A5FF064800680128AE
:100ED000F9D94FF0805004490860BFF34F8FBFF33A
:100EE0006F8FF0E77014002004ED00E02DE9FF5F44
:100EF00080460E469146DDE90E7A109CA9F101006C
:100F0000216B01EB800B2BF0070B002507E0715DD7
:100F100004F134004155705D00B902E06D1C102DE4
:100F2000F5D300BF002143200155052F00D304272E
:100F3000E762201D00F003F904F1180000F0FFF84B
:100F40002461C7F10500A06164620020606484F838
:100F5000480041465846039A00F0BEF82060BAF1B6
:100F6000000F01D0CAF80040BDE8FF9F10B5002473
:100F700007E004EB84010F4A02EB810000F0D2F895
:100F8000641C052CF5D30C4800F0CCF80B4800F09D
:100F9000C9F80B4800F0C6F80A4800F0C3F80A4840
:100FA00000F0C0F80448094908600448084908608E
:100FB00010BD000070140020D4140020E81400209C
:100FC000FC140020101500202415002034000020FF
:100FD000380000200A490968096809B9012100E0C0
:100FE000002121B14FF0FF31064A116006E00449AB
:100FF0000968C968C868034A416811607047000001
:10100000340000206000002000BFBF2080F3118862
:10101000BFF34F8FBFF36F8F00BF00BFFEE700002D
:101020002DE9F04104464FF0000800F049F9264848
:10103000006820B9FFF72AFF01202349086044B166
:10104000083404F0070020B104F00700C0F10800E4
:101050000444002C32D041F2F83084422ED21B4F8F
:101060003846056801E02F462D686868A04202D224
:1010700028680028F7D1164885421FD0386800F14B
:101080000808286838606868001B102810D92E19D5
:101090006868001B70606C6071680C4800E0006854
:1010A000026852688A42FAD302683260066000BF62
:1010B000084968680968081A0649086000F02AFAB1
:1010C0004046BDE8F0810000280000201400002008
:1010D0001C00002024000020001F4FF080730360DC
:1010E000001F21F001030360001F034B036014384D
:1010F00002602038704700000910000801460A69A4
:10110000D1E901309860D1E9010358605068884204
:1011100001D188685060002008611068401E10608E
:101120001068704700F1080141604FF0FF318160A5
:1011300000F10801C16001610021016070470021D8
:101140000161704710B502460B685C1C0CB9106950
:1011500007E002F1080000E04068446824689C420F
:10116000FAD944684C604C68A160886041600A61AB
:101170001468641C146010BD42684A6093688B60F8
:10118000936859609160086103685B1C0360704755
:1011900000BFBF2080F31188BFF34F8FBFF36F8F65
:1011A00000BF03480068401C014908607047000008
:1011B0002C00002006480068401E054908600846CB
:1011C000006820B9002080F3118800BF00BF70477D
:1011D0002C00002070B506463546B6B1083D2C46B9
:1011E00000F06EF86168094800E000680268526823
:1011F0008A42FAD30268226004600549606809687F
:1012000008440349086000F085F970BD140000200F
:101210002400002003484FF0E021486107200861C6
:10122000704700003F19010070B50446002544B125
:1012300000F046F800212046FFF746FD00F06AF96D
:1012400005463DB94FF0805003490860BFF34F8F0A
:10125000BFF36F8F70BD000004ED00E01CB51148B6
:1012600000210B465022CDE900100FA1104800F0DC
:1012700093F80446012C14D100BFBF2080F31188DD
:10128000BFF34F8FBFF36F8F00BF4FF0FF3009499F
:10129000086001200849086000200849086000F043
:1012A00047F81CBD6400002049444C450000000084
:1012B000C50E0008600000204C0000204400002003
:1012C00002480068401C014908607047680000201F
:1012D0001248006818B10120114908601DE0002083
:1012E0000F4908600F480068B0FA80F0C0F11F0194
:1012F00001EB81020C4B03EB8200426852684260B2
:1013000000F108024368934202D142685268426089
:101310004268D268054B1A6000BF70476800002021
:1013200054000020480000207014002030000020ED
:1013300010B50A48006840F47F0008490860084674
:10134000006840F07F400860FFF764FF0020044918
:101350000860FEF74DFF002010BD000020ED00E00A
:101360002C00002010B500BFBF2080F31188BFF310
:101370004F8FBFF36F8F00BF00F03EF818B14FF0F2
:1013800080500449086000BF002080F3118800BF2E
:1013900010BD000004ED00E02DE9FF4F85B0804650
:1013A00089461746DDE912ABB800FFF739FE06465D
:1013B00056B14C20FFF734FE04460CB1266304E01E
:1013C0003046FFF707FF00E000247CB10020CDE9A4
:1013D00000ABCDE902403A4649464046089BFFF73C
:1013E00085FD2046FFF7BCFC012501E04FF0FF35ED
:1013F000284609B0BDE8F08F2DE9F04100273A48B2
:101400000068002863D139480068451C37480560EA
:101410008DB93748D0F800803648006834490860F4
:101420003448C0F8008034480068401C32490860E5
:10143000FFF7D0FD00BF3148006885423BD300BFB5
:101440002B480068006808B9012000E0002020B1A6
:101450004FF0FF30294908602CE025480068C0683B
:10146000C4686668B54202D22448066022E0201DA6
:10147000FFF744FEA06A18B104F11800FFF73EFE22
:1014800094F82C10012088401D49096808431C4924
:101490000860E16A01EB81011A4A02EB8100211D1B
:1014A000FFF76AFE1849E06A0968C96A8842C7D32B
:1014B0000127C5E700BF14480068C06A00EB800040
:1014C000104951F82000012800D9012704E00F48F5
:1014D0000068401C0D4908600D48006800B10127F4
:1014E0003846BDE8F081000068000020440000207C
:1014F0003400002038000020580000206000002048
:10150000480000207014002030000020500000200F
:101510005400002070B500240026FFF739FE2E4845
:101520000068401E2C4908600846006800284FD11A
:101530002A48006800284BD024E02948C068C468C5
:1015400004F11800FFF7DAFD201DFFF7D7FD94F82E
:101550002C1001208840234909680843214908606C
:10156000E16A01EB8101204A02EB8100211DFFF7B6
:1015700003FE1E49E06A0968C96A884202D3012055
:101580001B4908601648006808B9012000E00020E7
:101590000028D2D00CB1FFF71DFD1648056865B1D3
:1015A00000BFFFF729FF10B10120114908606D1E2F
:1015B000002DF6D100200F4908600D48006838B1B1
:1015C000012630070C490860BFF34F8FBFF36F8FC0
:1015D000FFF7F0FD304670BD68000020400000209D
:1015E000FC1400204800002070140020300000206F
:1015F000540000205000002004ED00E01C160008FC
:1016000000000020700000006C0100088C1600082B
:1016100070000020281B0000880100080000000066
:101620000102030401020304060708090204060874
:1016300000000000000000000000000000000000AA
:10164000F813000000000000AAAAAAAA00000000E7
:10165000000000000000000000000000000000008A
:10166000000000000000000000000000000000007A
:10167000000000000000000000000000000000006A
:0C1680000000000000000000000000005E
:0400000508000131BD
:00000001FF
